:0400000058EF00F0C5
:10000800FACF14F0FBCF15F0E9CF16F025ED01F08B
:10001800D8CF02F0E8CF03F0E0CF04F0FACF05F034
:10002800FBCF06F0E9CF07F0EACF08F0E1CF09F0FF
:10003800E2CF0AF0D9CF0BF0DACF0CF0F3CF0DF006
:10004800F4CF0EF0F6CF0FF0F7CF10F0F8CF11F095
:10005800F5CF12F09EAA05D0897078EC01F09E9A2F
:1000680000D012C0F5FF11C0F8FF10C0F7FF0FC095
:10007800F6FF0EC0F4FF0DC0F3FF0CC0DAFF0BC093
:10008800D9FF0AC0E2FF09C0E1FF08C0EAFF07C0C4
:10009800E9FF06C0FBFF05C0FAFF04C0E0FF03C08C
:1000A800E8FF02C0D8FF100095EF01F0000E2B6E9C
:1000B80029AE0BD0291E281E271E266C000E2722CB
:1000C80028222922010E2B6E00D025AE0BD0251E2A
:1000D800241E231E226C000E232224222522010E18
:1000E8002B1A00D0000E2C6E000E2D6E000E2E6EF8
:1000F800000E2F6E2650271028102910D8B42FD0A4
:10010800010E2A6E07D0D89026362736283629368B
:100118002A2A00D029BE02D0F6D700D0D8902C3693
:100128002D362E362F362650225C2750235828503D
:10013800245829502558D8A00AD02650225E275086
:10014800235A2850245A2950255A2C8000D0D89058
:1001580029322832273226322A2EE0D700D02B50D7
:10016800D8B409D02F1E2E1E2D1E2C6C000E2D2249
:100178002E222F2200D02CC022F02DC023F02EC01A
:1001880024F02FC025F000D01200AC84B886B890B7
:10019800B89230C026F031C027F0000E27BEFF0EFF
:1001A800286E296E000E226E240E236EF40E246E25
:1001B800000E256E5AEC00F022C060F023C061F0FA
:1001C80024C062F025C063F060C022F061C023F053
:1001D80062C024F063C025F0040E266E000E276E60
:1001E800000E286E000E296E5AEC00F0FF0E222435
:1001F800386EFF0E2320396E3950B06E3850356E88
:10020800346A35C034F0356A34BE35683450AF6E60
:10021800AC98AB8EB850CF0BB86E3250D8B402D071
:100228009D8A02D09D9A00D03350D8B402D09D88C0
:1002380001D09D989F9A9F98AC9CAB9CAC8AAB8848
:1002480012000600EACF17F0E1CF18F0E2CF19F05C
:10025800D9CF1AF0DACF1BF0F3CF1CF0F4CF1DF092
:10026800F6CF1EF0F7CF1FF0F8CF20F0F5CF21F032
:10027800F2B202D008D000D0ACA2FED7490E8AEC68
:1002880001F0F29200D021C0F5FF20C0F8FF1FC096
:10029800F7FF1EC0F6FF1DC0F4FF1CC0F3FF1BC014
:1002A800DAFF1AC0D9FF19C0E2FF18C0E1FF17C072
:1002B800EAFF16C0E9FF15C0FBFF14C0FAFF1100E2
:1002C800010E9EEC01F0250E316E800E306E010E8F
:1002D800326E000E336EC9EC00F0A7EC01F0899085
:1002E8009290FFD758EF00F0F20E3A16ABAC05D05B
:1002F8003A90ABA002D03A8000D0ABB43A84ABB20B
:100308003A86AECF01F0015000D01200136EACACAB
:1003180005D0AC903AA202D0AC8000D013C0ADFF9B
:1003280012003B6A3A6A396A386A376A366A0001E3
:1003380064EF01F0226E2250D8B402D0D08E02D0E1
:10034800D09E00D01200F28EF28CF28EF28C120047
:020000040020DA
:08000000FFFFFFFFFFFFFFFF00
:020000040030CA
:0E000000030C1F1FFF8381FF0FC00FE00F4096
:00000001FF
