:0400000058EF00F0C5
:10000800FACF14F0FBCF15F0E9CF16F05AED00F057
:10001800D8CF02F0E8CF03F0E0CF04F0FACF05F034
:10002800FBCF06F0E9CF07F0EACF08F0E1CF09F0FF
:10003800E2CF0AF0D9CF0BF0DACF0CF0F3CF0DF006
:10004800F4CF0EF0F6CF0FF0F7CF10F0F8CF11F095
:10005800F5CF12F09EAA05D0897099EC00F09E9A0F
:1000680000D012C0F5FF11C0F8FF10C0F7FF0FC095
:10007800F6FF0EC0F4FF0DC0F3FF0CC0DAFF0BC093
:10008800D9FF0AC0E2FF09C0E1FF08C0EAFF07C0C4
:10009800E9FF06C0FBFF05C0FAFF04C0E0FF03C08C
:1000A800E8FF02C0D8FF1000E7EF00F00600EACF33
:1000B80017F0E1CF18F0E2CF19F0D9CF1AF0DACF64
:1000C8001BF0F3CF1CF0F4CF1DF0F6CF1EF0F7CFE6
:1000D8001FF0F8CF20F0F5CF21F0F2B202D008D00F
:1000E80000D0ACA2FED7490ED4EC00F0F29200D0BA
:1000F80021C0F5FF20C0F8FF1FC0F7FF1EC0F6FFA4
:100108001DC0F4FF1CC0F3FF1BC0DAFF1AC0D9FFE3
:1001180019C0E2FF18C0E1FF17C0EAFF16C0E9FFE7
:1001280015C0FBFF14C0FAFF1100F20E2616ABAC87
:1001380005D02690ABA002D0268000D0ABB4268490
:10014800ABB22686AECF01F0015000D01200236E6C
:10015800C9CF22F09E96C69E23C0C9FFC6BE07D04F
:1001680002D005D000D09EB602D0FDD700D0120034
:10017800C690C692C694C696C698C79CC78E949ECB
:100188009392928A9D96C68A1200EEEC00F09280B5
:10019800BCEC00F000D0DFEC00F0FDD758EF00F029
:1001A800136EACAC05D0AC9026A202D0AC8000D0C7
:1001B80013C0ADFF120004D0480EABEC00F000D025
:1001C80089A0FAD71200276A266A256A246A0001DC
:0601D800C9EF00F0120067
:020000040020DA
:08000000FFFFFFFFFFFFFFFF00
:020000040030CA
:0E00000004001F1FFF8385FF0FC00FE00F409D
:00000001FF
