:0400000058EF00F0C5
:10000800FACF14F0FBCF15F0E9CF16F018ED01F098
:10001800D8CF02F0E8CF03F0E0CF04F0FACF05F034
:10002800FBCF06F0E9CF07F0EACF08F0E1CF09F0FF
:10003800E2CF0AF0D9CF0BF0DACF0CF0F3CF0DF006
:10004800F4CF0EF0F6CF0FF0F7CF10F0F8CF11F095
:10005800F5CF12F09EAA05D0897057EC01F09E9A50
:1000680000D012C0F5FF11C0F8FF10C0F7FF0FC095
:10007800F6FF0EC0F4FF0DC0F3FF0CC0DAFF0BC093
:10008800D9FF0AC0E2FF09C0E1FF08C0EAFF07C0C4
:10009800E9FF06C0FBFF05C0FAFF04C0E0FF03C08C
:1000A800E8FF02C0D8FF1000B3EF01F0000E2B6E7E
:1000B80029AE0BD0291E281E271E266C000E2722CB
:1000C80028222922010E2B6E00D025AE0BD0251E2A
:1000D800241E231E226C000E232224222522010E18
:1000E8002B1A00D0000E2C6E000E2D6E000E2E6EF8
:1000F800000E2F6E2650271028102910D8B42FD0A4
:10010800010E2A6E07D0D89026362736283629368B
:100118002A2A00D029BE02D0F6D700D0D8902C3693
:100128002D362E362F362650225C2750235828503D
:10013800245829502558D8A00AD02650225E275086
:10014800235A2850245A2950255A2C8000D0D89058
:1001580029322832273226322A2EE0D700D02B50D7
:10016800D8B409D02F1E2E1E2D1E2C6C000E2D2249
:100178002E222F2200D02CC022F02DC023F02EC01A
:1001880024F02FC025F000D01200AC84B886B890B7
:10019800B89230C026F031C027F0000E27BEFF0EFF
:1001A800286E296E000E226E2D0E236E310E246EDF
:1001B800010E256E5AEC00F022C034F023C035F051
:1001C80024C036F025C037F034C022F035C023F003
:1001D80036C024F037C025F0040E266E000E276EB8
:1001E800000E286E000E296E5AEC00F0FF0E222435
:1001F800386EFF0E2320396E3950B06E3850336E8A
:10020800326A33C032F0336A32BE33683250AF6E6E
:10021800AC98AB8EB850CF0BB86E9D8A9F9AAC9CA9
:10022800AB9CAC8AAB8812000600EACF17F0E1CF8E
:1002380018F0E2CF19F0D9CF1AF0DACF1BF0F3CFCC
:100248001CF0F4CF1DF0F6CF1EF0F7CF1FF0F8CF5B
:1002580020F0F5CF21F0F2B202D008D000D0ACA245
:10026800FED7490EA8EC01F0F29200D021C0F5FFAC
:1002780020C0F8FF1FC0F7FF1EC0F6FF1DC0F4FF27
:100288001CC0F3FF1BC0DAFF1AC0D9FF19C0E2FF78
:1002980018C0E1FF17C0EAFF16C0E9FF15C0FBFF51
:1002A80014C0FAFF1100F20E3A16ABAC05D03A9022
:1002B800ABA002D03A8000D0ABB43A84ABB23A8655
:1002C800AECF01F0015000D01200B8EC01F0250EBD
:1002D800316E800E306EC9EC00F079EC01F000D080
:1002E80086EC01F0FDD758EF00F0C650F00B050979
:1002F800C66EC698C79CC79E949E9382928A9D9606
:10030800C68A120000D0C7B002D0FDD700D0ACA278
:10031800FED79DEC01F092EC01F01200226EACAC1D
:1003280005D0AC903AA202D0AC8000D022C0ADFF7C
:100338001200C9CF22F09E96000EC96E00D09EA66C
:10034800FED7C95000D01200136EACAC05D0AC90EB
:100358003AA202D0AC8000D013C0ADFF12003B6AB5
:0A0368003A6A000169EF01F012008B
:020000040020DA
:08000000FFFFFFFFFFFFFFFF00
:020000040030CA
:0E00000004001F1FFF8385FF0FC00FE00F409D
:00000001FF
