:0400000061EF00F0BC
:10000800FACF13F0FBCF14F0E9CF15F063ED00F051
:10001800D8CF02F0E8CF03F0E0CF04F0FACF05F034
:10002800FBCF06F0E9CF07F0EACF08F0E1CF09F0FF
:10003800E2CF0AF0D9CF0BF0DACF0CF0F3CF0DF006
:10004800F4CF0EF0F6CF0FF0F7CF10F0F8CF11F095
:10005800F5CF12F09EAA05D08970AEEC00F09E9AFA
:1000680009D09EA407D08970000ECF6E000ECE6E08
:100078009E9400D012C0F5FF11C0F8FF10C0F7FF22
:100088000FC0F6FF0EC0F4FF0DC0F3FF0CC0DAFF7F
:100098000BC0D9FF0AC0E2FF09C0E1FF08C0EAFFB0
:1000A80007C0E9FF06C0FBFF05C0FAFF04C0E0FF78
:1000B80003C0E8FF02C0D8FF1000CCEF00F0060034
:1000C800EACF16F0E1CF17F0E2CF18F0D9CF19F048
:1000D800DACF1AF0F3CF1BF0F4CF1CF0F6CF1DF0F7
:1000E800F7CF1EF0F8CF1FF0F5CF20F0F2A203D023
:1000F8008970F29200D020C0F5FF1FC0F8FF1EC023
:10010800F7FF1DC0F6FF1CC0F4FF1BC0F3FF1AC0A9
:10011800DAFF19C0D9FF18C0E2FF17C0E1FF16C007
:10012800EAFF15C0E9FF14C0FBFF13C0FAFF110076
:10013800BD50F00B0A09BD6EB186B19C9396CD9265
:10014800CD96CD8E9D90BE68F00EBF6E9F949D8417
:10015800CD801200F20E2616ABAC05D02690ABA0CF
:1001680002D0268000D0ABB42684ABB22686AECFB0
:1001780001F0015000D0120089909290010ED5EC48
:1001880000F0DEEC00F09CEC00F0FFD761EF00F02F
:10019800276A266A256A246A236A226A0001C0EF50
:1001A80000F0216E2150D8B402D0D08E02D0D09E5B
:1001B80000D01200D0AE03D0F28EF28C03D0F28CB5
:0601C800F28E00D01200CF
:020000040020DA
:08000000FFFFFFFFFFFFFFFF00
:020000040030CA
:0E000000030C1F1FFF8181FF0FC00FE00F4098
:00000001FF
