:04000000CAEF3FF014
:107F8C00480EEFEC3FF01200066A056A046A036AB9
:107F9C00026A016A0001E0EF3FF0C690C692C694F7
:107FAC00C696C698C79CC78E949E9392928A9D96AD
:107FBC00C68A1200D3EC3FF0928000D089B0FED775
:107FCC00C6EC3FF000D089B0F9D7FDD7F7D700EF5A
:107FDC0000F0086EC9CF07F09E96C69E08C0C9FF78
:107FEC00C6BE07D002D005D000D09EB602D0FDD7B9
:047FFC0000D012009F
:020000040020DA
:08000000FFFFFFFFFFFFFFFF00
:020000040030CA
:0E000000030C1F1FFF8181FF0FC00FE00F4098
:00000001FF
